:100000000C94BB010C94E3010C94E3010C94B70233
:100010000C94B7020C94B7020C94E3010C94E30126
:100020000C94E3010C94E3010C94E3010C94E301C0
:100030000C94E3010C94E3010C94E3010C94E301B0
:100040000C94A6080C94E3010C94E3010C94E301D6
:100050000C94E3010C94E3010C94E3010C94E30190
:100060000C94E3010C94E30100407A10F35A00A0D1
:10007000724E18090010A5D4E80000E87648170071
:1000800000E40B54020000CA9A3B000000E1F505B1
:10009000000080969800000040420F000000A086FB
:1000A00001000000102700000000E803000000002D
:1000B0006400000000000A000000000001000000D1
:1000C00000002C76D888DC674F0823DFC1DFAE59EB
:1000D000E1B1B796E5E3E453C63AE651997696E87E
:1000E000E6C28426EB898C9B62ED407C6FFCEFBC02
:1000F0009C9F40F2BAA56FA5F490055A2AF75C932D
:100100006B6CF9676DC11BFCE0E40D47FEF520E662
:10011000B500D0ED902E0300943577050080841E45
:10012000080000204E0A000000C80C333333330FA0
:10013000986E12831141EF8D2114893BE65516CF3D
:10014000FEE6DB18D1844B381BF77C1D901DA4BB49
:10015000E424203284725E228100C9F124ECA1E5FE
:100160003D27202062793A204B6576696E204265F2
:10017000726E61732020002020536D6172742045DF
:100180006E636C6F73757265202020002020202024
:10019000202020202020202020202020203A2D2830
:1001A00000556E646566696E6564204D6F646520F8
:1001B0004572726F72006872732020202020202008
:1001C0000020202020202020200020202020486502
:1001D000617465722054696D6572202020200025AD
:1001E00020200020204272696768746E6573733A3C
:1001F000200053706F746C6967687420427269677D
:1002000068746E6573730020202020202020202039
:100210004F46462020202020202020002020202083
:1002200020202020204F4E20202020202020202071
:100230000020204865617465722046756E6374699C
:100240006F6E3A202000252020002020427269672E
:1002500068746E6573733A200043617365204C4582
:1002600044204272696768746E65737320002520AC
:1002700020202020002020202053706565643A2033
:100280000020204D6978696E672046616E205370AA
:10029000656564202000202020202049646C6500D2
:1002A0002020436F6F6C696E67004300526F6F6D63
:1002B0003A0043002F00436F6F6C202054656D702F
:1002C0003A0043202048656174696E670025004349
:1002D0002046616E3A00526F6F6D3A0043002F0066
:1002E0004175746F202054656D703A004175746FCC
:1002F000482054656D703A00005EBCE2613FDD83CA
:10030000C29C7E20A3FD1F41009D23BE46DB65F8F5
:100310008C11AF32CA57E974000000002400270096
:100320002A0000000000250028002B00000000002B
:100330002300260029000404040404040404020227
:100340000202020203030303030301020408102054
:10035000408001020408102001020408102000005F
:100360000008000201000003040700000000000074
:100370000000C315A71511241FBECFEFD8E0DEBFC4
:10038000CDBF11E0A0E0B1E0E2E7F8E302C00590E4
:100390000D92A033B107D9F722E0A0E3B1E001C08C
:1003A0001D92A236B207E1F711E0CAEBD1E004C01A
:1003B0002197FE010E94D419C93BD107C9F70E94B9
:1003C000F0080C942C1C0C940000CF92DF92EF925A
:1003D000FF920F931F93CF93DF936C017A018B01F0
:1003E000C0E0D0E0CE15DF0581F0D8016D918D0120
:1003F000D601ED91FC910190F081E02DC6010995A7
:10040000892B11F02196EECF7E01C701DF91CF91AC
:100410001F910F91FF90EF90DF90CF900895209162
:100420003201309133012817390771F4909130016E
:1004300080913101981741F0E0913001F0E0E655EC
:10044000FE4F808190E008958FEF9FEF089508950B
:100450001F93CF93DF93DC015C968D919C915D9708
:10046000009739F421E030E013963C932E931297D5
:100470003BC05196ED91FC91529750962C9150971C
:10048000322F30951FB75E964C915E97742F727025
:1004900041FD6095F8944081772311F0422B01C013
:1004A00043234083EC012197F1F748E0508160FF3E
:1004B00002C0522B01C053235083EC012197F1F766
:1004C0006695415099F78081772319F083238083C3
:1004D00002C0282B20831FBF5C968D919C915D9755
:1004E0000197F1F781E090E0DF91CF911F9108959E
:1004F00020913201309133012817390771F480912E
:1005000031012091300190E0805C9F4F821B910966
:1005100060E470E00E94A119089580E090E00895E1
:10052000209132013091330128173907B9F49091A5
:10053000300180913101981789F0E0913001F0E0AD
:10054000E655FE4F80812091300130E02F5F3F4F14
:100550002F7333272093300190E008958FEF9FEFA2
:100560000895089580E090E008950E94271C1F924E
:100570000F920FB60F9211242F933F934F935F93D7
:100580006F937F938F939F93AF93BF93EF93FF935B
:10059000E0913201F0913301309709F451C0968D0A
:1005A000A685B785858591FF04C09C91892329F490
:1005B00047C09C91892309F043C0A389B4899C91C9
:1005C0008589809589238C93868997890197F1F78E
:1005D000608D718DA685B785558538E020E0CB010B
:1005E0000197F1F7822F90E095958795282F4C91F0
:1005F000452309F02068315091F7868D81FD2095C3
:100600008091310190E001968F73992730913001EC
:10061000381749F0A0913101B0E0A655BE4F2C9398
:100620008093310103C0868D8160868F828D938D8A
:100630000197F1F7A389B4899C918589892B8C93C3
:10064000FF91EF91BF91AF919F918F917F916F91AA
:100650005F914F913F912F910F900FBE0F901F9080
:100660001895DC0180E0615098F02D91982F922729
:10067000E92FEF70F0E0E850FD4F249192959F70C4
:10068000E92FF0E0E85FFC4FE491822F8E27EBCF5B
:100690000895FC0190810180F281E02DF894818120
:1006A000892B81832281892F809528232283A7E0AB
:1006B000B0E01197F1F7218182238183A3E2B0E0BA
:1006C0001197F1F780817894EFECF0E03197F1F732
:1006D000982381E009F480E00895FC019081018075
:1006E000F281E02D892F809560FF12C0F89422815D
:1006F000822382838181892B8183A3E2B0E01197D9
:10070000F1F78281982B9283789487ED90E011C065
:10071000F8942281822382838181892B8183AFEFA8
:10072000B0E01197F1F78281982B928378948FE053
:1007300090E00197F1F70895DF92EF92FF920F9307
:100740001F93CF93DF93EC01D62EE42E08E010E048
:10075000FF24F39461E08D2D8F2109F460E0CE0138
:100760000E946D03FF0C01501109A1F7E11010C0A8
:10077000F894E981FA819181888180958923818328
:10078000E981FA8192818881809589238283789496
:10079000DF91CF911F910F91FF90EF90DF9008951F
:1007A000EF92FF920F931F93CF93DF938C017B0106
:1007B00040E065E50E949C03E70188E0E80EF11C3B
:1007C000699140E0C8010E949C03CE15DF05C1F786
:1007D000DF91CF911F910F91FF90EF900895DC0171
:1007E0002C911196ED91FC911297F8948181922FA2
:1007F00090958923818378948DE743E050E0815080
:1008000021F1DA011197F1F730813223C1F3F89425
:100810008281892382838181822B81837894ABE7D3
:10082000B7E01197F1F7F89481819823918383E1E0
:1008300091E00197F1F78081282381E009F080E0C1
:100840007894E3E6F6E03197F1F70895833081F08C
:1008500028F4813099F08230A1F008958730A9F012
:100860008830B9F08430D1F4809180008F7D03C04E
:10087000809180008F7780938000089584B58F7772
:1008800002C084B58F7D84BD08958091B0008F77BC
:1008900003C08091B0008F7D8093B00008953FB772
:1008A000F8948091EE019091EF01A091F001B09148
:1008B000F10126B5A89B05C02F3F19F00196A11D97
:1008C000B11D3FBFBA2FA92F982F8827820F911DE6
:1008D000A11DB11DBC01CD0142E0660F771F881F2D
:1008E000991F4A95D1F708958F929F92AF92BF9228
:1008F000CF92DF92EF92FF920F931F93CF93DF93EC
:100900008C01EB0180915302909154020E94EF03FD
:10091000882309F43DC0B80180915302909154029C
:100920000E94D00340E06EEB8091530290915402FC
:100930000E949C038E015E0189E0A80EB11C80908C
:1009400053029090540288E0C82ED12CF12CEE2452
:10095000E394C4010E9449038111FE28EE0CE1E0FA
:10096000CE1AD108B1F7F801F1928F01EA15FB0513
:1009700031F780915302909154020E94EF0381302D
:1009800039F468E0CE010E94310391E028852813F4
:1009900090E0892FDF91CF911F910F91FF90EF9001
:1009A000DF90CF90BF90AF909F908F9008950F935E
:1009B0001F93CF93DF93CDB7DEB729970FB6F89487
:1009C000DEBF0FBECDBF8C01BE016F5F7F4F0E94A7
:1009D0007404882369F12A8130E0C901982F88279F
:1009E000990F990F990F698128E0629FB001112436
:1009F0009C01262B372BF80180818031E1F468853A
:100A000070E08F81AB01481B5109CA019695982F60
:100A10008827979587950E94A11960517109207FB9
:100A200053E0220F331F5A95E1F7620F731F04C082
:100A300060E874EE01C0B901613854EE75076CF0DE
:100A4000072E000C880B990B0E94051B20E030E05C
:100A500040E05CE30E94BA1B04C060E070E08EEFEF
:100A600092EC29960FB6F894DEBF0FBECDBFDF9192
:100A7000CF911F910F9108958F929F92AF92BF9245
:100A8000CF92DF92EF92FF92E0912F02F09130022D
:100A9000C080D180E280F380C0923702D0923802C9
:100AA000E0923902F0923A02E0912D02F0912E028A
:100AB00080819181A281B38180933B0290933C021B
:100AC000A0933D02B0933E0280904702909048026E
:100AD000A0904902B0904A02A5019401C701B60155
:100AE0000E94B51B181684F0809043029090440237
:100AF000A0904502B0904602A5019401C701B6013D
:100B00000E94561A87FF08C08092370290923802DE
:100B1000A0923902B0923A02FF90EF90DF90CF900E
:100B2000BF90AF909F908F9008950F931F93CF9396
:100B3000DF938C01C0E0D0E0F801EC0FFD1F649161
:100B4000662341F082EF91E00E942802892B11F088
:100B50002196F2CFCE01DF91CF911F910F91089591
:100B6000CF93DF93CDB7DEB729970FB6F894DEBFEA
:100B70000FBECDBFFC0120812031D1F0BE016F5FDF
:100B80007F4F0E947404882389F08D818F3361F038
:100B900020F48F3159F489E00CC08F3519F08F376C
:100BA00039F004C08BE005C08AE003C080E001C0DA
:100BB0008CE029960FB6F894DEBF0FBECDBFDF9153
:100BC000CF910895BF92CF92DF92EF92FF920F9351
:100BD0001F93CF93DF93EC016B018D85811105C0CD
:100BE000CE010E94EF03811105C01B861D861C8665
:100BF00080E060C040E060EFCE010E949C0301E015
:100C0000E12CB12C11E0CE010E944903F82ECE0157
:100C10000E94490391E0F91203C08130B1F434C05D
:100C20002E2D30E0F8121BC08B85181738F4FE010A
:100C3000E20FF31F8381802341F402C0811729F062
:100C4000F12C193058F41C8709C0FE01EE0DF11D7E
:100C50008381802B8383FF24F39409C0B12EFE018E
:100C6000E20FF31F9381802F8095892383836F2D5B
:100C7000CE010E946D031F5F000F11F4E39401E0A9
:100C800087E08E1508F0BFCF113408F4AECFBB86D5
:100C9000B11002C081E08D878B81882309F4A5CF34
:100CA000DE011396F6012B968D918193CA17DB070F
:100CB000D9F781E0DF91CF911F910F91FF90EF90D5
:100CC000DF90CF90BF900895FF920F931F93CF9323
:100CD000DF938C01F62EE0915302F09154021386BB
:100CE00015861486DF011B9633961E92EA17FB07C2
:100CF000E1F7C0E0B80180915302909154020E9444
:100D0000E205D82F882369F0FC1208C067E0C8010B
:100D10000E943103F8019781891721F0CF5FFC16FB
:100D200048F7D0E08D2FDF91CF911F910F91FF9069
:100D30000895009769F0FC0101900020E9F73197D0
:100D4000AF01481B590BBC0182EF91E00C94E50107
:100D500080E090E008956FED82EF91E00C9428021E
:100D6000CF93DF93282F30E0F901E25AFC4F8491B2
:100D7000F901E65BFC4FD491F901EA5CFC4FC491A8
:100D8000CC2391F081110E942604EC2FF0E0EE0FAD
:100D9000FF1FE45DFC4FA591B491EC91ED2381E040
:100DA00090E021F480E002C080E090E0DF91CF91FC
:100DB00008951F93CF93DF93282F30E0F901E25A73
:100DC000FC4F8491F901E65BFC4FD491F901EA5C98
:100DD000FC4FC491CC23C1F0162F81110E94260430
:100DE000EC2FF0E0EE0FFF1FEE5DFC4FA591B491EC
:100DF0009FB7F894111104C08C91D095D82302C0EC
:100E0000EC91DE2BDC939FBFDF91CF911F91089572
:100E1000CF93DF9390E0FC01E65BFC4F2491FC0153
:100E2000EA5CFC4F8491882361F190E0880F991F60
:100E3000FC01E85EFC4FC591D491FC01EE5DFC4FD6
:100E4000A591B491611109C09FB7F894888120954C
:100E500082238883EC912E230BC0623061F49FB70C
:100E6000F8948881322F309583238883EC912E2B40
:100E70002C939FBF06C08FB7F894E8812E2B288350
:100E80008FBFDF91CF9108951F93CF93DF93182FDA
:100E9000EB0161E00E940807209711F460E004C0B4
:100EA000CF3FD10539F461E0812FDF91CF911F91C0
:100EB0000C94D906E12FF0E0E25AFC4FE491E330C4
:100EC000F9F048F4E130B9F0E230A1F584B5806280
:100ED00084BDC8BD34C0E730E9F0E83019F1E43032
:100EE00049F580918000806280938000D0938B00D0
:100EF000C0938A0024C084B5806884BDC7BD1FC06C
:100F000080918000806880938000D0938900C09396
:100F1000880015C08091B00080688093B000C093B5
:100F2000B3000DC08091B00080628093B000C09388
:100F3000B40005C0C038D1050CF0B5CFAFCFDF91FC
:100F4000CF911F9108958F929F92AF92BF92CF92AF
:100F5000DF92EF92FF926B017C010E944F044B01E4
:100F60005C01C114D104E104F104F1F00E944F04CA
:100F7000DC01CB0188199909AA09BB09883E934075
:100F8000A105B10570F321E0C21AD108E108F1080A
:100F900088EE880E83E0981EA11CB11CC114D104F8
:100FA000E104F10419F7DDCFFF90EF90DF90CF90CF
:100FB000BF90AF909F908F900895EF92FF920F9304
:100FC0001F93CF93DF93CDB7DEB761970FB6F89439
:100FD000DEBF0FBECDBF8C010E94B0058C3019F46E
:100FE000FF24F39499C0BE016F5F7F4FC8010E9438
:100FF0007404F82E882309F48FC0F80180818031B1
:1010000079F38FE78D8380915302909154020E946F
:10101000EF03B80180915302909154020E94D003D3
:1010200040E06EE480915302909154020E949C0330
:1010300040E06B8180915302909154020E949C0386
:1010400040E06C8180915302909154020E949C0375
:10105000F8018081803141F040E06D818091530240
:10106000909154020E949C038091530290915402EB
:101070000E94EF03B80180915302909154020E94A4
:10108000D00340914D0268E4809153029091540244
:101090000E949C0364E170E080E090E00E94A3075E
:1010A00080914D02882331F06AE070E080E090E0AA
:1010B0000E94A30780915302909154020E94EF0373
:1010C00080914E028D3020F48CE080934E0288CFC8
:1010D0008CE080934E0200E010E08091510290E09D
:1010E00008171907CCF4602FCE010A960E946406F7
:1010F000E0904E02CE010A960E94B0058E1518F4BB
:1011000080914E0204C0CE010A960E94B0058093E1
:101110004E020F5F1F4FE1CF8F2D61960FB6F894EF
:10112000DEBF0FBECDBFDF91CF911F910F91FF901A
:10113000EF9008952FB7F8946091EA017091EB0158
:101140008091EC019091ED012FBF08951F920F92B5
:101150000FB60F9211242F933F938F939F93AF93CA
:10116000BF938091EA019091EB01A091EC01B091C5
:10117000ED013091610223E0230F2D3720F4019619
:10118000A11DB11D05C026E8230F0296A11DB11DAA
:10119000209361028093EA019093EB01A093EC010C
:1011A000B093ED018091EE019091EF01A091F001DB
:1011B000B091F1010196A11DB11D8093EE019093B4
:1011C000EF01A093F001B093F101BF91AF919F9116
:1011D0008F913F912F910F900FBE0F901F901895F8
:1011E000CF93DF93CDB7DEB7E7970FB6F894DEBFA6
:1011F0000FBECDBF789484B5826084BD84B5816014
:1012000084BD85B5826085BD85B5816085BD8091D1
:101210006E00816080936E00109281008091810049
:101220008260809381008091810081608093810041
:10123000809180008160809380008091B100846003
:101240008093B1008091B00081608093B000809164
:101250007A00846080937A0080917A008260809323
:101260007A0080917A00816080937A0080917A0080
:10127000806880937A001092C10010920D02109243
:101280000C0210920B0210920A02109209021092A4
:1012900008028DE991E090930F0280930E029091E5
:1012A000FE01963108F058C02DEB30E03093090272
:1012B000209308022BE931E030930B0220930A02BD
:1012C0002CE231E030930D0220930C024091680033
:1012D000983058F031E09E3008F430E021E0822F61
:1012E00001C0880F3A95EAF701C084E0842B80930F
:1012F0006800983038F09E3040F0963148F42CE683
:1013000030E008C02DE630E005C02BE630E002C03A
:1013100020E030E03093060220930502983030F44C
:1013200081E001C0880F9A95EAF70EC0292F30E0BE
:101330009E3018F42850310902C02E50310981E046
:1013400001C0880F2A95EAF78093070280910E0268
:1013500090910F020197F1F780910C0290910D028C
:10136000892B49F1E0913201F091330101E0E23F34
:10137000F00709F1309739F0A389B4899C918589E8
:10138000809589238C93809110028E7F8093100228
:10139000109231011092300182EF91E0909333016D
:1013A00080933201E0910502F091060290818091D4
:1013B0000702892B808364EF71E080E090E00E9457
:1013C000A30765E182EF91E00E94280262E084E0D9
:1013D0000E94080762E085E00E94080762E086E05C
:1013E0000E94080761E083E00E94080761E089E04D
:1013F0000E94080761E08AE00E94080761E08BE034
:101400000E94080761E08DE00E94080760E070E03C
:1014100083E00E94440760E070E089E00E94440796
:101420006FEF70E08BE00E9444076FEF70E08AE09E
:101430000E94440760E08DE00E94D906E0915302CB
:10144000F0915402138615861486DF011B9633969D
:101450001E92EA17FB07E1F7109251021092520216
:1014600011E0BE016F5F7F4F809153029091540253
:101470000E94E205882309F462C067E0CE0101966C
:101480000E94310398858913ECCF80914D02811120
:1014900028C080915302909154020E94EF03BE0134
:1014A0006F5F7F4F80915302909154020E94D0034E
:1014B00040E064EB80915302909154020E949C039F
:1014C00080915302909154020E944903082F809109
:1014D0005302909154020E94EF03002311F40C94E4
:1014E000FD1200914E02CE0101960E94B0058017B8
:1014F00018F480914E0204C0CE0101960E94B005FE
:1015000080934E02809151028F5F809351028981B6
:10151000883211F40C94011348F4803111F40C94C6
:101520000113823209F09DCF0C9401138B3311F417
:101530000C940113823409F094CF0C94011360E0F1
:1015400083E691E00E94640661E08FE491E00E94EE
:10155000640683E691E00E94DD078FE491E00E943B
:10156000DD0710924F0287E791E00E94950582E621
:1015700091E00E94950568EB7BE080E090E00E949E
:10158000A30760913F0270914002809141029091C7
:1015900042020E94031B9B01AC0160E070E088E402
:1015A00093E40E945B1A6B017C019B01AC0160918A
:1015B00021027091220280912302909124020E94C4
:1015C000BA1B6093210270932202809323029093AE
:1015D0002402A70196016091250270912602809154
:1015E0002702909128020E945B1A60932502709353
:1015F0002602809327029093280288EC90E0A0E0D6
:10160000B0E080933F0290934002A0934102B093D8
:10161000420280914B02811102C00E943C0581E090
:1016200080934B020E949A082B013C016093980121
:101630007093990180939A0190939B0180913F014F
:1016400090914001A0914101B0914201A30192010A
:10165000281B390B4A0B5B0B233331054105510520
:1016600008F455C084E00E94B00620913E01892B09
:1016700031F4211138C081E080933E012CC0222337
:10168000E9F080913A0190913B01A0913C01B09129
:101690003D0193018201081B190B2A0B3B0BD90159
:1016A000C801803D9740A105B10510F00C94F414D9
:1016B00084E00E94B006892B09F0AAC785E00E9449
:1016C000B00620913901892B09F0B5C721110BC053
:1016D00081E08093390140923A0150923B0160923F
:1016E0003C0170923D0140923F0150924001609256
:1016F0004101709242010BC080914B02811102C0E6
:101700000E943C0581E080934B0210928B018091F6
:101710007101882321F0813009F463C0F0C0809109
:101720005302909154020E94EF0340E06CEC8091D0
:101730005302909154020E949C0340914D0264E434
:1017400080915302909154020E949C0380914F0219
:101750008823D9F1E0914E02E950E33040F4F0E003
:10176000EE0FFF1FE85EFE4F0081118102C00EEEFA
:1017700012E080915002882311F180914D02811175
:101780001EC00E949A086B017C014801110FAA0833
:10179000BB0880915302909154020E94490381300A
:1017A000A1F00E949A08DC01CB0188199909AA09C5
:1017B000BB098C159D05AE05BF0558F306C0B801E1
:1017C000110F880B990B0E94A30740926D01509254
:1017D0006E0160926F017092700181E080937101DF
:1017E0008EC080916D0190916E01A0916F01B091BA
:1017F0007001A3019201281B390B4A0B5B0BDA0124
:10180000C90180329340A105B10508F478C08091E8
:101810006B0190916C0101968330910528F49093AF
:101820006C0180936B0104C010926C0110926B01EB
:1018300000916B0110916C0183E691E00E94D70446
:10184000000F111F000F111FF801E95AFE4F6083AE
:101850007183828393838FE491E00E94D704F8011F
:10186000ED5BFE4F608371838283938307E511E014
:1018700033E4232E31E0332EC12CD12C76014601E6
:101880005701D8012D913D914D915D918D01C5017B
:10189000B4010E94EA194B015C01F10121913191DF
:1018A000419151911F01C701B6010E94EA196B01D4
:1018B0007C01F1E003361F0721F720E030E040E42F
:1018C00050E4C501B4010E945B1A60930C0170934F
:1018D0000D0180930E0190930F0120E030E040E471
:1018E00050E4C701B6010E945B1A6093080170932F
:1018F000090180930A0190930B011092710180916C
:101900004B02882309F445C10E949A086BA77CA763
:101910008DA79EA78091330290913402A091350249
:10192000B09136024BA55CA56DA57EA5481B590B51
:101930006A0B7B0B80913F0290914002A091410283
:10194000B0914202481759076A077B0708F421C182
:10195000E0912D02F0912E020081118122813381CC
:101960000FA318A729A73AA7E0913102F0913202FC
:10197000A901980160817181828193810E94E91996
:101980006B017C0120913B0230913C0240913D0271
:1019900050913E026FA178A589A59AA50E94E919E8
:1019A0006FA778AB89AB9AAB2091210230912202CC
:1019B0004091230250912402C701B6010E94BA1B34
:1019C00020913702309138024091390250913A0209
:1019D0000E94EA194B015C01609337027093380250
:1019E0008093390290933A0210914C021BAB111173
:1019F0001CC020911D0230911E0240911F02509187
:101A000020026FA578A989A99AA90E94BA1B9B01F7
:101A1000AC01C501B4010E94E919609337027093CB
:101A200038028093390290933A0220913702309124
:101A300038024091390250913A022CAB3DAB4EAB8B
:101A40005FAB20904702309048020091490210910C
:101A50004A029101A8016CA97DA98EA99FA90E94A3
:101A6000B51B18165CF4C101D8018093370290931E
:101A70003802A0933902B0933A021AC08090430210
:101A800090904402A0904502B0904602A5019401B6
:101A90006CA97DA98EA99FA90E94561A87FF08C02C
:101AA0008092370290923802A0923902B0923A02A4
:101AB0003BA9332379F020911D0230911E02409101
:101AC0001F0250912002C701B6010E94BA1B6B0190
:101AD0007C0103C0C12CD12C7601209125023091CC
:101AE000260240912702509128026FA578A989A962
:101AF0009AA90E94BA1B9B01AC01609137027091B8
:101B000038028091390290913A020E94E919A701A6
:101B100096010E94EA196B017C019B01AC01B101A5
:101B2000C8010E94561A87FD12C0209043023090CF
:101B3000440200914502109146029101A801B601AC
:101B4000C7010E94561A87FD02C016018701E09165
:101B50002F02F0913002C101D80180839183A283CA
:101B6000B3838FA198A5A9A5BAA580933B029093B2
:101B70003C02A0933D02B0933E020BA51CA52DA5EF
:101B80003EA5009333021093340220933502309324
:101B9000360210918B01113009F059C01092890161
:101BA0008090000190900101A0900201B09003018B
:101BB000C0900C01D0900D01E0900E01F0900F014B
:101BC00020E030E040E85FE3C501B4010E94E9197C
:101BD000A70196010E94B51B181694F460E070E00E
:101BE00083E00E94440710928801109284011092B1
:101BF000850110928601109287011092830177C2AD
:101C000020E030E040E85FE3C501B4010E94EA193A
:101C10009B01AC01C701B6010E94B51B18160CF060
:101C200066C26FEF70E083E00E9444071093880162
:101C300080E090E0AFE7B3E4809384019093850166
:101C4000A0938601B09387011093830150C28091C5
:101C50008801811121C020E030E040E551E460912D
:101C600034017091350180913601909137010E94C5
:101C7000B51B87FD40C062E370E083E00E9444072B
:101C800081E08093880140927F01509280016092B0
:101C900081017092820146C080917F019091800104
:101CA000A0918101B0918201A3019201281B390BFF
:101CB0004A0B5B0BDA01C901843F9140A105B105D4
:101CC000D0F0C0903401D0903501E0903601F09012
:101CD000370120E030E040E551E4C701B6010E9441
:101CE000B51B87FD08C0C701B6010E94CD1A83E06D
:101CF0000E94440717C020E030E040E551E46091C5
:101D000034017091350180913601909137010E9424
:101D1000561A87FF07C060E070E083E00E94440726
:101D20001092880190918A0180918901992309F488
:101D3000C3C090917E01C0908C01D0908D01E09045
:101D40008E01F0908F01911110C0C114D104E104F3
:101D5000F10459F091E090937E0140927A01509203
:101D60007B0160927C0170927D0120E030E040E8D0
:101D70005FE3811141C06091040170910501809180
:101D80000601909107010E94E91920E030E040E04F
:101D90005FE30E94E91920910C0130910D014091FF
:101DA0000E0150910F010E94B51B87FD60C080910C
:101DB000760190917701A0917801B091790193011A
:101DC0008201081B190B2A0B3B0BD901C80180317A
:101DD00017E29107A105B10508F449C0883B98486E
:101DE000A105B10528F010928A0110927E013FC032
:101DF00081E08093890133C06091040170910501F5
:101E000080910601909107010E94E91920E030E0DD
:101E100040E05FE30E94EA1920910C0130910D012E
:101E200040910E0150910F010E94561A1816FCF0B5
:101E30008091760190917701A0917801B09179011C
:101E400093018201081B190B2A0B3B0BD901C80116
:101E500080319742A105B10550F01092890140925E
:101E60007601509277016092780170927901C114E5
:101E7000D104E104F10461F180917A0190917B0138
:101E8000A0917C01B0917D0153014201881A990A09
:101E9000AA0ABB0AA701960160E87EEE86E390E0FD
:101EA0000E949119681579058A059B0588F410929E
:101EB0008A0110927E010CC010928901882341F0A2
:101EC0004092760150927701609278017092790188
:101ED00080918301811138C020E030E040E751E477
:101EE0006091900170919101809192019091930184
:101EF0000E94B51B87FF10C020E030E040E050E4B6
:101F000060913401709135018091360190913701D3
:101F10000E94B51B87FD89C080E090E0A8E4B2E490
:101F20008093840190938501A0938601B0938701EB
:101F300081E080938301409272015092730160921C
:101F40007401709275019BC0809172019091730130
:101F5000A0917401B0917501A3019201281B390B66
:101F60004A0B5B0BDA01C901843F9140A105B10521
:101F700008F45BC08090900190909101A090920134
:101F8000B090930120E030E040E751E4C501B40196
:101F90000E94B51B87FF10C020E030E040E050E415
:101FA0006091340170913501809136019091370133
:101FB0000E94B51B87FD39C0C0903401D090350117
:101FC000E0903601F0903701A7019601C501B401F8
:101FD0000E94B51B87FD09C0809284019092850103
:101FE000A0928601B09287014AC020E030E040E72D
:101FF00051E4C701B6010E94B51B18164CF4C092FB
:102000008401D0928501E0928601F092870137C069
:1020100080E090E0A0E7B1E4809384019093850193
:10202000A0938601B09387012AC020E030E040E011
:1020300050E46091340170913501809136019091A6
:1020400037010E94561A87FF1AC020E030E040E7AF
:1020500051E4609190017091910180919201909171
:1020600093010E94561A87FF0AC0109284011092B1
:10207000850110928601109287011092830120E061
:1020800030E04FE753E460918401709185018091C5
:102090008601909187010E94561A87FF28C080917F
:1020A0008901811115C08091760190917701A091ED
:1020B0007801B091790193018201081B190B2A0B59
:1020C0003B0BD901C80180339547A105B10578F4D0
:1020D00080E090E0AFE7B3E48093840190938501C2
:1020E000A0938601B093870181E080938301609182
:1020F00084017091850180918601909187010E94F1
:10210000CD1A89E00E9444074090140150901501B7
:102110006090160170901701C301B2010E94CD1AA0
:102120008AE00E944407609189018DE00E94D906EF
:102130008090100190901101A0901201B0901301B5
:10214000C501B4010E94CD1A8BE00E944407809122
:10215000980190919901A0919A01B0919B014091B1
:1021600094015091950160919601709197018C01B5
:102170009D01041B150B260B370B093C110521058E
:10218000310508F432C28093940190939501A09395
:102190009601B093970120E030E048EC52E4609162
:1021A00090017091910180919201909193010E9410
:1021B000BA1B20E030E04FE753E40E945B1A0E9414
:1021C000CD1A6B017C0120E030E048EC52E46091D4
:1021D00034017091350180913601909137010E9450
:1021E000BA1B20E030E04FE753E40E945B1A0E94E4
:1021F000CD1A072E000C880B990B0E94051B8E012F
:10220000065E1F4F20E043E00E94081760910C011A
:1022100070910D0180910E0190910F0101511109F2
:1022200021E044E00E9408176091080170910901C3
:1022300080910A0190910B010850110921E044E0BE
:102240000E940817609104017091050180910601B8
:10225000909107010D5D1F4F20E042E00E9408179A
:102260006091000170910101809102019091030140
:102270000350110920E042E00E940817B601DD0C6E
:10228000880B990B0E94051B0B50110920E043E0BD
:102290000E94081720E030E048EC52E4C301B2018C
:1022A0000E94BA1B20E030E04FE753E40E945B1A23
:1022B0000E94CD1A072E000C880B990B0E94051B5B
:1022C0000450110920E043E00E94081720E030E0AC
:1022D00048EC52E4C501B4010E94BA1B20E030E092
:1022E0004FE753E40E945B1A0E94CD1A072E000CA0
:1022F000880B990B0E94051B0450110920E043E054
:102300000E94081760918C0170918D0180918E015F
:1023100090918F010E94031B005F1F4F20E042E05D
:102320000E94081780918B016BE181114CC082EFF4
:1023300091E00E94280260E082EF91E00E94280272
:1023400080918A01882319F08CEE92E002C080EE21
:1023500092E00E949505CE0109960E9499068EEDA5
:1023600092E00E949505CE0184960E9499060E94F3
:10237000AB068CED92E00E9495056BE182EF91E057
:102380000E94280264E182EF91E00E94280286ED1B
:1023900092E00E949505CE0101960E9499060E9446
:1023A000AB068091890181110BC08FEC92E00E94F5
:1023B0009505CE014A960E9499068DEC92E013C1D4
:1023C00082EC92E010C1813009F041C082EF91E0CF
:1023D0000E94280260E082EF91E00E94280286EBD2
:1023E00092E00E949505CE0109960E94990684EB21
:1023F00092E00E949505CE0181960E9499060E9466
:10240000AB0682EB92E00E9495056BE182EF91E0D2
:102410000E94280264E182EF91E00E9428028CEA87
:1024200092E00E949505CE0101960E9499060E94B5
:10243000AB068AEA92E00E94950580918801882384
:1024400019F080EA92E0CFC086E992E0CCC08230F9
:1024500011F582EF91E00E94280260E082EF91E0A6
:102460000E94280281E892E00E9495056BE182EFCC
:1024700091E00E94280264E182EF91E00E9428022C
:1024800085E792E00E949505CE0146960E94990646
:102490008EE692E0A8C0833011F582EF91E00E94B1
:1024A000280260E082EF91E00E94280289E592E034
:1024B0000E9495056BE182EF91E00E94280264E1A1
:1024C00082EF91E00E9428028AE492E00E94950542
:1024D000CE0142960E94990686E492E084C0843040
:1024E00009F582EF91E00E94280260E082EF91E01E
:1024F0000E94280281E392E00E9495056BE182EF41
:1025000091E00E94280264E182EF91E00E9428029B
:1025100080918A01882319F08CE192E064C087E001
:1025200092E061C0853011F582EF91E00E942802AF
:1025300060E082EF91E00E94280282EF91E00E9429
:1025400095056BE182EF91E00E94280264E182EF41
:1025500091E00E94280283EE91E00E949505CE0151
:102560000E960E9499068FED91E03DC0863011F5E0
:1025700082EF91E00E94280260E082EF91E00E94E9
:1025800028028AEC91E00E9495056BE182EF91E0D0
:102590000E94280264E182EF91E00E94280281EC0F
:1025A00091E00E949505CE014E960E94990686EB19
:1025B00091E019C082EF91E00E94280260E082EF72
:1025C00091E00E94280281EA91E00E9495056BE16A
:1025D00082EF91E00E94280264E182EF91E00E9484
:1025E00028028CE891E00E94950520E030E0232B42
:1025F00009F418C80E94000015C810934D020C94ED
:10260000710A809152028F5F809352020C94310ABA
:1026100010923E0180918B01811104C010924B02F7
:1026200081E0ECC1833011F485E0E8C1843009F029
:1026300063C886E0E3C1222309F432C180913A01E4
:1026400090913B01A0913C01B0913D01A301920109
:10265000281B390B4A0B5B0BDA01C901803D9740FF
:10266000A105B10508F05BC285E00E94B006892B88
:1026700009F416C11092390180918B0181111EC09D
:1026800020E030E040E050E46091040170910501E9
:1026900080910601909107010E94EA196B017C016B
:1026A00020E030E048E452E40E94B51B18160CF01C
:1026B000EDC080E090E0A8E4B2E43DC1813039F59E
:1026C00020E030E040E050E46091000170910101B1
:1026D00080910201909103010E94EA196B017C0133
:1026E00020E030E048E452E40E94B51B181654F094
:1026F000C0920001D0920101E0920201F092030128
:102700000C94870B80E090E0A8E4B2E445C18230ED
:1027100081F520E030E04CEC51E460919001709143
:10272000910180919201909193010E94EA196B01AD
:102730007C0120E030E04FE753E40E94B51B1816FF
:1027400054F0C0929001D0929101E0929201F092E7
:1027500093010C94870B80E090E0AFE7B3E48093A3
:10276000900190939101A0939201B09393010C94E6
:10277000870B833081F520E030E04CEC51E4609130
:1027800014017091150180911601909117010E941A
:10279000EA196B017C0120E030E04FE753E40E942E
:1027A000B51B181654F0C0921401D0921501E09296
:1027B0001601F09217010C94870B80E090E0AFE7D0
:1027C000B3E48093140190931501A0931601B09384
:1027D00017010C94870B843069F481E080938A019F
:1027E000409276015092770160927801709279015F
:1027F0000C94870B853081F520E030E04CEC51E4FF
:10280000609110017091110180911201909113015A
:102810000E94EA196B017C0120E030E04FE753E4AD
:102820000E94B51B181654F0C0921001D0921101ED
:10283000E0921201F09213010C94870B80E090E07B
:10284000AFE7B3E48093100190931101A0931201BC
:10285000B09313010C94870B863011F00C94870B06
:1028600080918C0190918D01A0918E01B0918F018A
:102870000196A11DB11D81339105A105B10508F493
:10288000A7C080E390E0A0E0B0E0A2C0C092040145
:10289000D0920501E0920601F09207010C94870B9B
:1028A00086E00E94B00620913801892B09F4AAC065
:1028B000222311F40C94870B80913A0190913B01F3
:1028C000A0913C01B0913D0193018201081B190BBD
:1028D0002A0B3B0BD901C801803D9740A105B105EA
:1028E00008F027C186E00E94B006892B11F40C94F1
:1028F000870B1092380180918B01811126C020E056
:1029000030E040E050E46091040170910501809155
:102910000601909107010E94E9196B017C0120E0FA
:1029200030E040EA51E40E94561A87FFAFCF80E0C2
:1029300090E0A0EAB1E48093040190930501A09394
:102940000601B09307010C94870B813009F062C037
:1029500020E030E040E050E460910001709101011E
:1029600080910201909103010E94E9196093000196
:1029700070930101809302019093030120E030E005
:1029800040EA51E40E94561A87FD02C00C94870B5E
:1029900080E090E0A0EAB1E480930001909301010F
:1029A000A0930201B09303010C94870B853009F4C6
:1029B0008DC0863011F00C94870B80918C01909122
:1029C0008D01A0918E01B0918F010197A109B109EC
:1029D00080938C0190938D01A0938E01B0938F0111
:1029E00010927E010C94870B84E00E94B006892B24
:1029F00011F40C945E0B10923E0184E080938B01E5
:102A00000C94870B21110C94730B81E08093380197
:102A10000C946B0B823049F520E030E04CEC51E433
:102A20006091900170919101809192019091930138
:102A30000E94E91960939001709391018093920133
:102A40009093930120E030E0A9010E94561A87FD7F
:102A500002C00C94870B1092900110929101109279
:102A60009201109293010C94870B833049F520E07A
:102A700030E04CEC51E460911401709115018091AB
:102A80001601909117010E94E91960931401709347
:102A90001501809316019093170120E030E0A90101
:102AA0000E94561A87FD02C00C94870B10921401E5
:102AB0001092150110921601109217010C94870BB9
:102AC000843009F073CF10928A018ACF20E030E081
:102AD0004CEC51E460911001709111018091120150
:102AE000909113010E94E9196093100170931101F4
:102AF000809312019093130120E030E0A9010E941D
:102B0000561A87FD02C00C94870B10921001109288
:102B1000110110921201109213010C94870B85E0A1
:102B20000E94B006892B09F4BBCE1092390182E0D5
:102B300065CF86E00E94B006892B11F40C94870BB8
:102B40001092380133E030938B010C94870B82E2B2
:102B500091E09093F3018093F20180913201909182
:102B60003301825F914071F4E0910502F091060219
:102B70009081809107028095892380831092330190
:102B80001092320108950F931F9360E082E00E943B
:102B90000807ECE4F3E0E491E0939C01E8E3F3E060
:102BA000E491F0E0EE0FFF1FE45DFC4F85919491FE
:102BB00090939E0180939D011092A7011092A9010C
:102BC0001092A801E7EAF1E08FE991E012928E17E6
:102BD0009F07E1F78CE991E09093540280935302B0
:102BE000109251021092520210924D0289E080938D
:102BF0004E0261E060934F026093500210926002B7
:102C000010925F021092F5011092F40188EE93E0A9
:102C1000A0E0B0E08093F6019093F701A093F80153
:102C2000B093F90182E291E09093F3018093F20175
:102C3000109209021092080210920B0210920A02DE
:102C400010920D0210920C0210920F0210920E02BE
:102C5000809110028E7F8260809310028695817031
:102C600068278CE00E94D90661E08CE00E9408078A
:102C7000E6E5F3E0E491E0930202E2E4F3E0E491BC
:102C8000F0E0EE0FFF1FEE5DFC4F85919491909365
:102C900004028093030260E088E00E9408078091AC
:102CA000100281FD04C061E088E00E94D90688E03E
:102CB0008093FE01E2E5F3E0E491E093FF01EEE3AF
:102CC000F3E0E491F0E0EE0FFF1FE45DFC4F85912F
:102CD0009491909301028093000284E391E0909399
:102CE000300280932F028CE091E090932E0280932B
:102CF0002D0284E091E09093320280933102109291
:102D00004B0210924302109244021092450210921C
:102D1000460280E090E0AFE7B3E4809347029093EF
:102D20004802A0934902B0934A0284E690E0A0E0F2
:102D3000B0E080933F0290934002A0934102B09391
:102D4000420281E090E090932A028093290210923F
:102D50002C0210922B0210924C0280E090E0A0E234
:102D6000B1E48093110290931202A0931302B093E6
:102D7000140280E090E0A0E8BFE3809315029093F6
:102D80001602A0931702B093180280931902909331
:102D90001A02A0931B02B0931C0280E090E0A0E214
:102DA000B1EC80931D0290931E02A0931F02B0937A
:102DB00020024DEC5CEC6CEC7DEB409321025093D7
:102DC0002202609323027093240280932502909341
:102DD0002602A0932702B09328020E949A0800912D
:102DE0003F02109140022091410230914202DC01E9
:102DF000CB01801B910BA20BB30B809333029093FA
:102E00003402A0933502B09336021F910F910895BA
:102E1000EF920F931F93CF93DF93E80147FD02C01A
:102E200034E001C034E1042E000C550B57FF03C001
:102E3000519541955109E32E022F242FAE010E9496
:102E40002817CE01DF91CF911F910F91EF90089538
:102E5000A9E0B0E0EEE2F7E10C9460196A01122FEC
:102E6000B02E2BE3201720F0FF24F394F00E02C0C5
:102E70002CE3F22E0F2D27E0AE014F5F5F4F0E9433
:102E80008218BC014981842F8970813031F0E1FCC6
:102E900006C0E0FE06C090E205C09DE203C09BE2D2
:102EA00001C090E05E2D507143FF3CC0911102C003
:102EB00083E001C084E0811718F4212F281B01C092
:102EC00020E051110BC0F601822F30E2882319F067
:102ED00031938150FBCFC20ED11C20E0992329F001
:102EE000D6019C93F60131966F01C6010396E2FE6E
:102EF0000AC03EE4D6013C9341E411964C931197ED
:102F000012963C9306C03EE6F601308341E64183CB
:102F10003283FC01322F40E2332309F442C0419353
:102F20003150FACF42FF44C0911102C083E001C08A
:102F300084E0811718F4212F281B01C020E05111D3
:102F40000BC0F601822F30E2882319F031938150B3
:102F5000FBCFC20ED11C20E0992329F0D6019C930F
:102F6000F60131966F01C6010396E2FE0BC039E40B
:102F7000D6013C933EE411963C93119736E41296A9
:102F80003C9307C039E6F60130833EE6318336E6EE
:102F90003283FC01322F40E2332319F04193315048
:102FA000FBCFFC01E20FF11D10828EEF9FEFA6C058
:102FB00021E030E0911102C020E030E01616170643
:102FC0001CF4FB01319602C0E1E0F0E02E0F3F1F40
:102FD000BB2021F0EB2DF0E0319602C0E0E0F0E004
:102FE0002E0F3F1FE12FF0E02E173F071CF4121B9E
:102FF000212F01C020E08E2D887159F4F601822F17
:1030000030E2882319F031938150FBCFC20ED11CDE
:1030100020E0992329F0D6019C93F60131966F01A7
:1030200051110BC0F601822F90E3882319F0919380
:103030008150FBCFC20ED11C20E00F2D060F9A81CC
:10304000342F307144FF03C0913309F4015010163E
:1030500024F4093018F008E001C001E0AB0177FF6B
:1030600002C040E050E0FB01E41BF50BA1E0B0E042
:10307000AC0FBD1FEA0FFB1F8EE2A82E4B01801A7A
:1030800091080B2D10E01195019511094F3FBFEFED
:103090005B0721F4D601AC9211966D016417750798
:1030A0002CF08416950614F4818101C080E3415010
:1030B00051093196D60111967D014017510724F030
:1030C000D6018C936701E2CF6417750739F4963304
:1030D00020F4953319F4311101C081E3F6018083A6
:1030E000F701822F90E2882319F091938150FBCF52
:1030F000F701E20FF11D108280E090E02996ECE0EC
:103100000C947C19283008F027E03327DA01990F56
:10311000311D87FD916000966105710539F43260BB
:103120002E5F3D9330E32A95E1F708959F3F30F0FD
:1031300080387105610509F03C5F3C5F3D9391303B
:1031400008F08068911DDF93CF931F930F93FF9238
:10315000EF92192F987F9695E92F96959695E90FFE
:10316000FF27EE53FF4F99273327EE24FF24A701B3
:10317000E70105900894079428F4360FE71EF81E1F
:10318000491F511D660F771F881F991F0694A1F7CD
:103190000590079428F4E70EF81E491F561FC11D1D
:1031A000770F881F991F661F0694A1F70590079453
:1031B00028F4F80E491F561FC71FD11D880F991FED
:1031C000661F771F0694A1F70590079420F4490F16
:1031D000561FC71FD81F990F661F771F881F069499
:1031E000A9F784911095177041F0D695C79557951A
:1031F0004795F794E7941A95C1F7E8E6F0E06894EC
:103200001590159135916591959105907FE2739593
:10321000E118F10A430B560BC90BD009C0F7E10CBA
:10322000F11E431F561FC91FD01D7EF4703311F4C9
:103230008A95E6CFE894015030F0080F0AF4002791
:10324000021708F4202F2395022F7A3328F079E310
:103250007D932A95E9F710C07D932A9589F6069407
:1032600097956795379517951794E118F10A430BD1
:10327000560BC90BD00998F023957E9173957A333C
:1032800008F070E37C932013B8F77E9170617D9312
:1032900030F0839571E37D9370E32A95E1F7112473
:1032A000EF90FF900F911F91CF91DF91992787FDAC
:1032B000909508952F923F924F925F926F927F92D6
:1032C0008F929F92AF92BF92CF92DF92EF92FF9236
:1032D0000F931F93CF93DF93CDB7DEB7CA1BDB0BE2
:1032E0000FB6F894DEBF0FBECDBF09942A88398887
:1032F00048885F846E847D848C849B84AA84B9848E
:10330000C884DF80EE80FD800C811B81AA81B98199
:10331000CE0FD11D0FB6F894DEBF0FBECDBFED01AD
:103320000895DB018F939F930E94B519BF91AF91D0
:10333000A29F800D911DA39F900DB29F900D11240F
:10334000089597FB072E16F4009407D077FD09D057
:103350000E94C01907FC05D03EF4909581959F4FBF
:103360000895709561957F4F08950E94DA19A59F81
:10337000900DB49F900DA49F800D911D1124089570
:10338000AA1BBB1B51E107C0AA1FBB1FA617B7078B
:1033900010F0A61BB70B881F991F5A95A9F78095A7
:1033A0009095BC01CD010895EE0FFF1F0590F4919B
:1033B000E02D0994A29FB001B39FC001A39F700D9F
:1033C000811D1124911DB29F700D811D1124911D2D
:1033D00008955058BB27AA270E94011A0C947B1B02
:1033E0000E946D1B38F00E94741B20F039F49F3F3F
:1033F00019F426F40C946A1B0EF4E095E7FB0C9488
:10340000641BE92F0E948C1B58F3BA1762077307DD
:103410008407950720F079F4A6F50C94AE1B0EF402
:10342000E0950B2EBA2FA02D0B01B90190010C01D4
:10343000CA01A0011124FF27591B99F0593F50F4EC
:10344000503E68F11A16F040A22F232F342F442744
:10345000585FF3CF469537952795A795F04053953C
:10346000C9F77EF41F16BA0B620B730B840BBAF00C
:103470009150A1F0FF0FBB1F661F771F881FC2F777
:103480000EC0BA0F621F731F841F48F4879577958B
:103490006795B795F7959E3F08F0B0CF9395880F45
:1034A00008F09927EE0F9795879508950E94401B85
:1034B00008F481E008950E946F1A0C947B1B0E940F
:1034C000741B58F00E946D1B40F029F45F3F29F0F7
:1034D0000C94641B51110C94AF1B0C946A1B0E943A
:1034E0008C1B68F39923B1F3552391F3951B550B6E
:1034F000BB27AA2762177307840738F09F5F5F4FC7
:10350000220F331F441FAA1FA9F335D00E2E3AF005
:10351000E0E832D091505040E695001CCAF72BD01D
:10352000FE2F29D0660F771F881FBB1F261737076E
:103530004807AB07B0E809F0BB0B802DBF01FF27A0
:1035400093585F4F3AF09E3F510578F00C94641BFE
:103550000C94AF1B5F3FE4F3983ED4F386957795C8
:103560006795B795F7959F5FC9F7880F911D969559
:10357000879597F90895E1E0660F771F881FBB1FB5
:10358000621773078407BA0720F0621B730B840B62
:10359000BA0BEE1F88F7E09508950E94D41A68943C
:1035A000B1110C94AF1B08950E94941B88F09F5793
:1035B00098F0B92F9927B751B0F0E1F0660F771F57
:1035C000881F991F1AF0BA95C9F714C0B13091F04D
:1035D0000E94AE1BB1E008950C94AE1B672F782FAC
:1035E0008827B85F39F0B93FCCF386957795679512
:1035F000B395D9F73EF490958095709561957F4F7E
:103600008F4F9F4F0895E89409C097FB3EF4909523
:103610008095709561957F4F8F4F9F4F9923A9F0AB
:10362000F92F96E9BB279395F6958795779567953A
:10363000B795F111F8CFFAF4BB0F11F460FF1BC07E
:103640006F5F7F4F8F4F9F4F16C0882311F096E911
:1036500011C0772321F09EE8872F762F05C06623BF
:1036600071F096E8862F70E060E02AF09A95660F78
:10367000771F881FDAF7880F9695879597F9089531
:10368000990F0008550FAA0BE0E8FEEF1616170673
:10369000E807F907C0F012161306E407F50798F0DB
:1036A000621B730B840B950B39F40A2661F0232BF4
:1036B000242B252B21F408950A2609F4A140A69570
:1036C0008FEF811D811D089597F99F6780E870E055
:1036D00060E008959FEF80EC089500240A94161688
:1036E000170618060906089500240A9412161306F0
:1036F000140605060895092E0394000C11F488237E
:1037000052F0BB0F40F4BF2B11F460FF04C06F5F99
:103710007F4F8F4F9F4F089557FD9058440F551F6F
:1037200059F05F3F71F04795880F97FB991F61F043
:103730009F3F79F087950895121613061406551FBA
:10374000F2CF4695F1DF08C0161617061806991F26
:10375000F1CF86957105610508940895E894BB271B
:1037600066277727CB0197F908950E94401B08F43C
:103770008FEF08950E94CD1B0C947B1B0E946D1B44
:1037800038F00E94741B20F0952311F00C94641BF8
:103790000C946A1B11240C94AF1B0E948C1B70F3B9
:1037A000959FC1F3950F50E0551F629FF001729FE6
:1037B000BB27F00DB11D639FAA27F00DB11DAA1FF5
:1037C000649F6627B00DA11D661F829F2227B00D42
:1037D000A11D621F739FB00DA11D621F839FA00DCD
:1037E000611D221F749F3327A00D611D231F849F1D
:1037F000600D211D822F762F6A2F11249F57504074
:103800009AF0F1F088234AF0EE0FFF1FBB1F661FEE
:10381000771F881F91505040A9F79E3F510580F0B7
:103820000C94641B0C94AF1B5F3FE4F3983ED4F3FD
:10383000869577956795B795F795E7959F5FC1F75B
:10384000FE2B880F911D9695879597F9089581E035
:1038500090E0F8940C942C1C11E0CAEBD1E004C069
:10386000FE010E94D4192196CB3BD107C9F7F894E9
:02387000FFCF88
:103872000000C041000030420000B0410000B041F1
:1038820000007F4300007F435E00BC007701000020
:1038920000002802E501B2022702780290020F021C
:00000001FF
